:100000000C9463000C948B000C948B000C948B006C
:100010000C948B000C948B000C948B000C948B0034
:100020000C948B000C948B000C948B000C948B0024
:100030000C948B000C948B000C948B000C948B0014
:100040000C9490040C948B000C9462030C943C036D
:100050000C948B000C948B000C948B000C948B00F4
:100060000C948B000C948B000000000025002800ED
:100070002B000000000023002600290000000008DB
:10008000000201000003040700000000000000005F
:1000900000000000240027002A00010204081020AC
:1000A000408001020408102001020408102004040A
:1000B0000404040404040202020202020303030310
:1000C0000303C70BB80811241FBECFEFD8E0DEBF73
:1000D000CDBF11E0A0E0B1E0EEE5F2E202C0059094
:1000E0000D92AC32B107D9F721E0ACE2B1E001C02A
:1000F0001D92AB3EB207E1F710E0C2E6D0E004C0CB
:100100002197FE010E940C0FC136D107C9F70E944A
:10011000C4080C9422110C9400000895CF92DF9231
:10012000EF92FF920F931F93CF93DF936C017A01AD
:100130008B01C0E0D0E0CE15DF0589F0D8016D91CC
:100140008D01D601ED91FC910190F081E02DC60169
:100150000995892B11F47E0102C02196ECCFC701CD
:10016000DF91CF911F910F91FF90EF90DF90CF9093
:100170000895FC01918D828D981761F0828DDF01C9
:10018000A80FB11D5D968C91928D9F5F9F73928F8A
:1001900090E008958FEF9FEF0895FC01918D828D7F
:1001A000981731F0828DE80FF11D858D90E008954C
:1001B0008FEF9FEF0895FC01918D228D892F90E0A4
:1001C000805C9F4F821B91098F739927089588E364
:1001D00091E00E94DB0021E0892B09F420E0822FCE
:1001E0000895FC01848DDF01A80FB11DA35ABF4FF4
:1001F0002C91848D90E001968F739927848FA68926
:10020000B7892C93A089B1898C9180648C93938D4C
:10021000848D981306C00288F389E02D80818F7D3C
:1002200080830895EF92FF920F931F93CF93DF93F4
:10023000EC0181E0888F9B8D8C8D981305C0E88937
:10024000F989808185FD24C0F62E0B8D10E00F5FAB
:100250001F4F0F731127E02E8C8DE8120CC00FB6C4
:1002600007FCFACFE889F989808185FFF5CFCE01B7
:100270000E94F100F1CF8B8DFE01E80FF11DE35AD2
:10028000FF4FF0820B8FEA89FB898081806207C073
:10029000EE89FF896083E889F989808180648083A1
:1002A00081E090E0DF91CF911F910F91FF90EF904F
:1002B0000895CF93DF93EC01888D8823C9F0EA89F4
:1002C000FB89808185FD05C0A889B9898C9186FD4F
:1002D0000FC00FB607FCF5CF808185FFF2CFA8894C
:1002E000B9898C9185FFEDCFCE010E94F100E7CF57
:1002F000DF91CF91089580E090E0892B29F00E9452
:10030000E70081110C9400000895833081F028F4F7
:10031000813099F08230A1F008958730A9F08830BB
:10032000B9F08430D1F4809180008F7D03C080913A
:1003300080008F7780938000089584B58F7702C006
:1003400084B58F7D84BD08958091B0008F7703C000
:100350008091B0008F7D8093B00008958230910528
:1003600038F0880F991F880F991F05970197F1F7AB
:1003700008953FB7F8948091310190913201A09196
:100380003301B091340126B5A89B05C02F3F19F069
:100390000196A11DB11D3FBFBA2FA92F982F882705
:1003A000820F911DA11DB11DBC01CD0142E0660F60
:1003B000771F881F991F4A95D1F708952FB7F89492
:1003C00060912D0170912E0180912F01909130014B
:1003D0002FBF08950F931F93CF93DF93EC01888174
:1003E0009981009729F02A813B812617370788F4E5
:1003F0008B016F5F7F4F0E943F10009761F09983E0
:1004000088831B830A832C813D81232B11F4FC01FB
:10041000108281E001C080E0DF91CF911F910F91A8
:100420000895EF92FF920F931F93CF93DF93FC01F8
:10043000248135816115710511F480E019C04115E1
:100440005105A9F07B01EC018A01020F131FB801CD
:100450000E94EA01882389F3288139818C819D815A
:10046000B701820F931F0E941B111D830C8381E033
:10047000DF91CF911F910F91FF90EF9008950F930F
:100480001F93CF93DF938C01EB01FC01808191815D
:100490000097B1F0688179816115710579F0428129
:1004A00053812C813D814217530740F00E941B115C
:1004B0008C819D81F8019583848313C00E94A70FCE
:1004C00088819981F801918380838A819B819383BC
:1004D00082838C819D8195838483198218821B82FB
:1004E0001A821D821C82DF91CF911F910F91089576
:1004F000EF92FF920F931F93CF93DF93EC017B0159
:100500008A01BA010E94EA012881398181110DC056
:100510002115310519F0C9010E94A70F198218820F
:100520001D821C821B821A8206C01D830C83B701A8
:10053000C9010E941B11CE01DF91CF911F910F9134
:10054000FF90EF900895FC01808191810C94A70F9A
:10055000FB01DC0111961C921E9213961C921E92B6
:10056000129715961C921E9214978617970749F0BA
:10057000608171816115710521F0448155810C9470
:1005800078020895FC011182108213821282158272
:1005900014826115710551F0FB0101900020E9F70B
:1005A0003197AF01461B570B0C9478020895BF9208
:1005B000CF92DF92EF92FF920F931F93CF93DF932F
:1005C0007C016B01EA0189012417350720F48D2F86
:1005D000E901042F182F65E271E0C7010E94C202F1
:1005E000D60114968D919C911597C817D907C8F517
:1005F0008017910708F48C01D601ED91FC911197B9
:10060000E00FF11FB08010824D915C91BA016C0F28
:100610007D1F6115710561F0FB0101900020E9F774
:100620003197AF01461B570BC7010E94780213C0D8
:10063000F70180819181009711F00E94A70FD701E7
:1006400011961C921E9215961C921E921497139648
:100650001C921E921297D601ED91FC91E00FF11FB2
:10066000B082C701DF91CF911F910F91FF90EF9062
:10067000DF90CF90BF9008951F920F920FB60F9208
:1006800011242F933F934F935F936F937F938F9397
:100690009F93AF93BF93EF93FF9388E391E00E9402
:1006A000F100FF91EF91BF91AF919F918F917F9159
:1006B0006F915F914F913F912F910F900FBE0F90CF
:1006C0001F9018951F920F920FB60F9211242F931F
:1006D0008F939F93EF93FF93E0914801F09149012D
:1006E0008081E0914E01F0914F0182FD12C0908116
:1006F000809151018F5F8F7320915201821751F0C9
:10070000E0915101F0E0E85CFE4F958F809351013C
:1007100001C08081FF91EF919F918F912F910F9058
:100720000FBE0F901F901895CF93DF93282F30E0C6
:10073000F901E458FF4F8491F901E656FF4FD49137
:10074000F901E255FF4FC491CC2391F081110E9431
:100750008501EC2FF0E0EE0FFF1FEE58FF4FA59143
:10076000B491EC91ED2381E090E021F480E002C0AF
:1007700080E090E0DF91CF9108951F93CF93DF93B6
:10078000282F30E0F901E458FF4F8491F901E65633
:10079000FF4FD491F901E255FF4FC491CC23C9F02A
:1007A000162F81110E948501EC2FF0E0EE0FFF1F44
:1007B000E859FF4FA591B4918FB7F894111105C076
:1007C0009C91ED2FE095E92302C0EC91ED2BEC9389
:1007D0008FBFDF91CF911F910895CF93DF93EB01EE
:1007E00081E58CBD1DBC60E08EE00E94BD031EBC97
:1007F00000000DB407FEFDCF8EB52BE130E0DE0129
:100800000E94050F24E630E040E050E00E949A0D7F
:10081000DA01C9018C599F4FAF4FBF4F8EBD000009
:100820000DB407FEFDCF8EB561E08EE0DF91CF9174
:100830000C94BD03CF93DF9390E0FC01E656FF4F8D
:100840002491FC01E255FF4F8491882361F190E0EF
:10085000880F991FFC01E057FF4FC591D491FC010F
:10086000E859FF4FA591B491611109C09FB7F89461
:100870008881209582238883EC912E230BC06230DF
:1008800061F49FB7F8943881822F80958323888301
:10089000EC912E2B2C939FBF06C08FB7F894E88164
:1008A0002E2B28838FBFDF91CF9108958F929F9237
:1008B000AF92BF92CF92DF92EF92FF926B017C01D9
:1008C0000E94B9014B015C01C114D104E104F1049F
:1008D000F1F00E94B901DC01CB0188199909AA093C
:1008E000BB09883E9340A105B10570F321E0C21A0F
:1008F000D108E108F10888EE880E83E0981EA11C5B
:10090000B11CC114D104E104F10419F7DDCFFF904B
:10091000EF90DF90CF90BF90AF909F908F90089511
:100920001F920F920FB60F9211242F933F938F9324
:100930009F93AF93BF9380912D0190912E01A09131
:100940002F01B091300130912C0123E0230F2D377E
:1009500020F40196A11DB11D05C026E8230F0296C3
:10096000A11DB11D20932C0180932D0190932E0188
:10097000A0932F01B0933001809131019091320109
:10098000A0913301B09134010196A11DB11D809356
:10099000310190933201A0933301B0933401BF91A0
:1009A000AF919F918F913F912F910F900FBE0F901C
:1009B0001F90189560E082E10E94BD0360E081E134
:1009C0000E94BD0360E080E10E94BD0360E08FE013
:1009D0000C94BD03CF92DF92EF92FF920F931F937F
:1009E000CF93DF936C018B01EA0177FF4EC0119525
:1009F00001951109E12CF12C61E08FE00E94BD030B
:100A0000CE010E94AE0160E082E10E94BD03CE01F2
:100A10000E94AE0161E080E10E94BD03CE010E9410
:100A2000AE0160E08FE00E94BD03CE010E94AE01E6
:100A300061E081E10E94BD03CE010E94AE0160E051
:100A400080E10E94BD03CE010E94AE0161E082E11F
:100A50000E94BD03CE010E94AE0160E081E10E94D0
:100A6000BD03CE010E94AE018FEFE81AF80AE0162E
:100A7000F10611F6C601DF91CF911F910F91FF9002
:100A8000EF90DF90CF900C94DA04E12CF12CE0167B
:100A9000F10681F361E082E10E94BD03CE010E9474
:100AA000AE0160E08FE00E94BD03CE010E94AE0166
:100AB00061E081E10E94BD03CE010E94AE0160E0D1
:100AC00082E10E94BD03CE010E94AE0161E080E19F
:100AD0000E94BD03CE010E94AE0160E081E10E9450
:100AE000BD03CE010E94AE0161E08FE00E94BD0314
:100AF000CE010E94AE0160E080E10E94BD03CE0104
:100B00000E94AE018FEFE81AF80AC1CF60E082E0E0
:100B10000E94BD0360E083E10E94BD0364E670E0D3
:100B200080E090E00C9456042F923F924F925F9297
:100B30006F927F928F929F92AF92BF92CF92DF92ED
:100B4000EF92FF920F931F93CF93DF93CDB7DEB752
:100B50006A970FB6F894DEBF0FBECDBF9A8F898F0C
:100B6000788F6F8B5A8749870E94DE016B8B7C8B55
:100B70008D8B9E8B0E94DE016B877C878D879E8785
:100B80000E94DE010E94DE0169837A838B839C834D
:100B900048EB5BE065E070E0898D9A8D0E94EA0485
:100BA0004CED55E063E270E0898D9A8D0E94EA0475
:100BB0006AE570E0898D9A8D0E94ED0360E085E022
:100BC0000E94BD0364E170E080E090E00E94560462
:100BD00069857A85898D9A8D0E94ED0361E082E0B6
:100BE0000E94BD0361E083E10E94BD0364E670E002
:100BF00080E090E00E9456040E94DC078C010E9475
:100C0000DE01A98DBA8DD7966D937D938D939C93BC
:100C1000DA97D1961C921E92D097FD013896CD019D
:100C2000C09601931193E817F907D9F7E98DFA8D6A
:100C30001582148212AA188A1F86A98DBA8D14965D
:100C40008D919C911597EF89F88D8E179F070CF069
:100C500040C10E94DE01A98DBA8DD3966D937D931C
:100C60008D939C93D697D7960D911D912D913C9184
:100C7000DA97601771078207930709F4FBC0FD013B
:100C800067AB70AF81AF92AF00A911A90E94DC07DA
:100C9000F8013496EE0FFF1F298D3A8DE20FF31FF6
:100CA00091838083D901D0968D919C91D1970196A3
:100CB000843191052CF4D1969C938E93D09704C0E7
:100CC000E98DFA8D11AA10AAA98DBA8DD0960D9131
:100CD0001C91D1971D821E821F821886C12CD12C97
:100CE00076012601370146015701212C312C0431B0
:100CF000110514F000E010E0F8013496EE0FFF1F2C
:100D0000298D3A8DE20FF31F408151815A8B498B17
:100D1000229CB001239C700D700D1124072E000C35
:100D2000880B990B0E947D0C9B01AC01C501B4019D
:100D30000E94220E4B015C0189899A89289EB0018C
:100D4000299E700D389E700D1124072E000C880B03
:100D5000990B0E947D0C9B01AC01C301B2010E9462
:100D6000220E2B013C01B101032C000C880B990BC6
:100D70000E947D0C9B01AC01C701B6010E94220EAE
:100D80006B017C01A989BA89BD01BB0F880B990B46
:100D90000E947D0C9B01AC016D817E818F819885C5
:100DA0000E94220E6D837E838F8398870F5F1F4F73
:100DB000BFEF2B1A3B0AE4E12E16310409F097CF5E
:100DC00020E030E040EA51E4C301B2010E94DC0CB3
:100DD0002B013C012D813E814F815885C701B60111
:100DE0000E94DC0C9B01AC01C301B2010E94210EE8
:100DF0002B013C0120E030E040EA51E4C501B401A0
:100E00000E94DC0C4B015C01A7019601C701B601F1
:100E10000E94DC0C9B01AC01C501B4010E94210EB3
:100E20009B01AC01C301B2010E948E0EA98DBA8D47
:100E3000D2962C91211112C020E030E040E05FE317
:100E40000E94000F1816B4F4E98DFA8D8481958103
:100E500001969583848321E022AB0CC020E030E032
:100E600040E05FEB0E94760C87FF04C0A98DBA8D2D
:100E7000D2961C92E98DFA8D048115812F853889CF
:100E800020173107A4F40E94DE0169837A838B83E3
:100E90009C830E94DE016B877C878D879E87698596
:100EA0007A85898D9A8D0E94ED03188B0F870E9499
:100EB000DE01DC01CB012B853C854D855E85821BE7
:100EC000930BA40BB50B89399A43A105B10508F41E
:100ED00048C00E94DE01DC01CB012B893C894D8991
:100EE0005E89821B930BA40BB50BE98DFA8D808371
:100EF0009183A283B38361E085E00E94BD03898D65
:100F00009A8D0E94860564EF71E080E090E00E9477
:100F100056044CED55E06DED7FEF898D9A8D0E9462
:100F2000EA0448EB5BE06AEF7FEF898D9A8D6A9661
:100F30000FB6F894DEBF0FBECDBFDF91CF911F91EA
:100F40000F91FF90EF90DF90CF90BF90AF909F9068
:100F50008F907F906F905F904F903F902F900C9468
:100F6000EA040E94DE01DC01CB0129813A814B8138
:100F70005C81821B930BA40BB50B893B9B40A105A5
:100F8000B10508F45ACE0E94DE0169837A838B830F
:100F90009C8360E570E0898D9A8D0E94ED0364E684
:100FA00070E080E090E00E94560469857A85898D22
:100FB0009A8D0E94ED0341CE86E480937C0080915F
:100FC0007A00806480937A0080917A0086FDFCCF5D
:100FD000809178002091790090E0922B08950097FD
:100FE00069F0FC0101900020E9F73197AF01481B3F
:100FF000590BBC0188E391E00C948E0080E090E0F6
:101000000895CF93DF9388E291E00E94EF07EC010F
:1010100083E291E00E94EF078C0F9D1FDF91CF913B
:1010200008956F927F928F929F92AF92BF92CF92CC
:10103000DF92EF92FF920F931F93CF93DF938C0178
:101040006A01EB01AC80BD80C5010197E0E0F0E0F2
:101050002FEF3FEF40E050E0A0E0B0E09E2E8F2E5B
:101060008E179F0764F1CA16DB062CF1EF0121965B
:101070007E01EA15FB0560F4EB016880798061145C
:10108000710431F0E301CE0FDF1FC881CC3231F0A3
:10109000E817F90719F0922E832E09C01196A901BD
:1010A0004F5F5F4FE817F90711F49E2C8F2CF70163
:1010B000292D382DD3CFC8010E94D70208C0CA16E7
:1010C000DB06CCF365E271E0C8010E94C202C801F0
:1010D000DF91CF911F910F91FF90EF90DF90CF9014
:1010E000BF90AF909F908F907F906F9008958F9258
:1010F0009F92AF92BF920F931F93CF93DF93CDB781
:10110000DEB7A1970FB6F894DEBF0FBECDBF19A210
:10111000423008F44AE08E010F5D1F4F842E912C5F
:10112000A12CB12CA50194010E94F00DE62FB9016C
:10113000CA0101501109EA3014F4E05D01C0E95C14
:10114000D801EC93232B242B252B61F7C8010E9497
:10115000EF07A1960FB6F894DEBF0FBECDBFDF91AB
:10116000CF911F910F91BF90AF909F908F90089556
:1011700085ED91E00E94A3028BED91E00E94A30215
:1011800081EE91E00C94A302CF93DF93CDB7DEB74D
:1011900062970FB6F894DEBF0FBECDBF789484B5CA
:1011A000826084BD84B5816084BD85B5826085BD63
:1011B00085B5816085BD80916E00816080936E00F1
:1011C00010928100809181008260809381008091E3
:1011D0008100816080938100809180008160809394
:1011E00080008091B10084608093B1008091B00054
:1011F00081608093B00080917A00846080937A004F
:1012000080917A00826080937A0080917A00816078
:1012100080937A0080917A00806880937A0010929F
:10122000C100E0914801F091490182E08083E091A2
:101230004401F09145011082E0914601F09147018F
:101240008FEC808310925001E0914C01F0914D01A0
:1012500086E08083E0914A01F0914B0180818061BA
:101260008083E0914A01F0914B0180818860808306
:10127000E0914A01F0914B01808180688083E09188
:101280004A01F0914B0180818F7D808368EC70E092
:1012900080E090E00E9456048BE390E00E94120FE1
:1012A0008C01FFB6F89480913501811127C0E8EBDD
:1012B000F0E08491E4EAF0E09491E82FF0E0EE0FA2
:1012C000FF1FE057FF4FA591B491EC91E92321F462
:1012D00061E08AE00E94BD0361E08AE00E941A0496
:1012E0008CB580618CBD8CB580648CBD61E08DE077
:1012F0000E941A0461E08BE00E941A04809135017B
:101300008F5F80933501FFBE61E08EE00E941A047A
:1013100061E085E00E941A0461E082E00E941A0404
:1013200061E083E10E941A0460E084E10E941A04F3
:1013300061E08FE00E941A0461E080E10E941A04DB
:1013400061E081E10E941A0461E082E10E941A04D6
:1013500061E083E00E941A0460E084E00E941A04C5
:1013600061E08EE00E94BD0360E083E00E94BD0367
:1013700060E086E00E941A0460E087E00E941A04A0
:1013800060E088E00E941A0460E089E00E941A048C
:1013900060E08CE00E941A04C8010E94DA0461E057
:1013A00085E00E94BD03C8010E94860584E00E947A
:1013B000940321E0892B09F420E0F8012683278398
:1013C0001582148212AA61E083E00E94BD0364E6E4
:1013D00070E080E090E00E94560460E083E00E94AC
:1013E000BD0364E670E080E090E00E94560461E096
:1013F00083E00E94BD0364E670E080E090E00E941C
:10140000560460E083E00E94BD030E94010810932F
:101410003701009336018E010F5F1F4F88E391E083
:101420000E94DB00892BD9F06AE070E080E090E058
:101430000E94560488E391E00E94DB00181619060A
:101440006CF788E391E00E94B90089831A8241E039
:1014500050E0B80181EE91E00E941102DFCF80914F
:10146000E5019091E601892B09F465C166E171E01F
:101470008091E1019091E2010E941211892B09F003
:101480006BC00E94010869E171E0CE0109960E94DB
:10149000C20286E00E9494037C0187E00E949403CC
:1014A000880F991FE80EF91E88E00E949403880FA8
:1014B000991F880F991FE80EF91E89E00E94940376
:1014C00043E0880F991F4A95E1F7E80EF91E8CE07A
:1014D0000E94940354E0880F991F5A95E1F7E80E93
:1014E000F91EF4E6EF16F104A4F441E050E061E2E5
:1014F00071E0CE0109960E9411028AE0E816F1041B
:1015000044F441E050E061E271E0CE0109960E94AE
:1015100011024AE0B801C7010E942C0CF8010190A9
:101520000020E9F73197AF01401B510BB801CE0104
:1015300009960E9411024D855E8569857A8588E34A
:1015400091E00E948E0083E291E00E94EF07CE01BD
:1015500009960E94A302E7C021E030E040E050E09D
:1015600061EE71E0C8010E94D702B8018BED91E0F5
:101570000E943F02C8010E94A3022FE030E041E038
:1015800050E061EE71E0C8010E94D702B80185ED1C
:1015900091E00E943F02C8010E94A3028091DF01F6
:1015A0009091E001892B09F4BEC066E271E0809160
:1015B000DB019091DC010E941211892B09F0B3C06C
:1015C00065ED71E0CE0109960E94A80240E050E06E
:1015D000BE01675F7F4FC8010E94110889819A810F
:1015E000009719F00E94050C03C060E070E0CB0189
:1015F0007B01C8010E94A302CE0109960E94A302AA
:1016000065ED71E0CE0109960E94A80241E050E02C
:10161000BE01675F7F4FC8010E9411088D819E81C6
:10162000892B41F0E981FA8121E08081882319F03A
:1016300020E001C021E0C8012F870E94A302CE0153
:1016400009960E94A3022F85222319F040E050E062
:1016500027C065ED71E0CE0109960E94A80241E025
:1016600050E0BE01675F7F4FC8010E941108898169
:101670009A81009729F00E94050CAB01BC0103C0C0
:1016800040E050E0BA01C8014F87588B698B7A8BD4
:101690000E94A302CE0109960E94A3024F85588999
:1016A000B70180913601909137010E9494050E9404
:1016B0000108E0913601F0913701608171818281EA
:1016C00093814AE00E94770883E291E00E94EF074D
:1016D000E0913601F0913701C480D5800D2C000CCB
:1016E000EE08FF08F7FE14C0E0913801F0913901CF
:1016F0000190F081E02D6DE288E391E00995662785
:101700007727CB016C197D098E099F094AE003C038
:101710004AE0C701B6010E94770883E291E00E9487
:10172000EF070E94010840E050E065E271E081EEC1
:1017300091E00E94780284E00E949403892B21F5B5
:10174000E0903601F09037016AE070E080E090E0D0
:101750000E94560484E00E9494030197A9F061E07E
:1017600083E00E94BD0364E670E080E090E00E94A8
:10177000560460E083E00E94BD0340E050E061E079
:1017800070E0C7010E9494050E947B0147CEE8E308
:10179000F1E01382128288EE93E0A0E0B0E084834F
:1017A0009583A683B7838AE091E09183808385EC5B
:1017B00090E09587848784EC90E09787868780EC1B
:1017C00090E0918B808B81EC90E0938B828B82EC0C
:1017D00090E0958B848B86EC90E0978B868B118EB6
:1017E000128E138E148E65E271E081EE91E00E94FC
:1017F000C20265E271E08BED91E00E94C20265E2F7
:1018000071E085ED91E00C94C2021F93FC019927D1
:101810008827BC01E89411911032E9F3193010F0D7
:101820001E30C8F31B3251F01D3249F4689406C0D3
:101830000E94370C610F711D811D911D1191105374
:101840001A30B0F33EF490958095709561957F4F76
:101850008F4F9F4F1F910895BB274A3031F4992332
:1018600022F4BDE2909581959F4F0C944D0C592F19
:10187000482F372F262F660F771F881F991F660F57
:10188000771F881F991F620F731F841F951F660F94
:10189000771F881F991F0895BB27FB015527AA278B
:1018A000880F991FAA1FA41710F0A41B83955051ED
:1018B000B9F7A05DAA3308F0A95DA193009779F765
:1018C000B111B1931192CB010C94660CDC01FC01B7
:1018D000672F71917723E1F7329704C07C916D9364
:1018E00070836291AE17BF07C8F308950E94B80CC9
:1018F00008F481E00895E89409C097FB3EF49095C0
:101900008095709561957F4F8F4F9F4F9923A9F0D8
:10191000F92F96E9BB279395F69587957795679567
:10192000B795F111F8CFFAF4BB0F11F460FF1BC0AB
:101930006F5F7F4F8F4F9F4F16C0882311F096E93E
:1019400011C0772321F09EE8872F762F05C06623EC
:1019500071F096E8862F70E060E02AF09A95660FA5
:10196000771F881FDAF7880F9695879597F908955E
:10197000990F0008550FAA0BE0E8FEEF16161706A0
:10198000E807F907C0F012161306E407F50798F008
:10199000621B730B840B950B39F40A2661F0232B21
:1019A000242B252B21F408950A2609F4A140A6959D
:1019B0008FEF811D811D08950E94EF0C0C94600D26
:1019C0000E94520D38F00E94590D20F0952311F01D
:1019D0000C94490D0C944F0D11240C94940D0E94FD
:1019E000710D70F3959FC1F3950F50E0551F629FE5
:1019F000F001729FBB27F00DB11D639FAA27F00D68
:101A0000B11DAA1F649F6627B00DA11D661F829F8E
:101A10002227B00DA11D621F739FB00DA11D621F73
:101A2000839FA00D611D221F749F3327A00D611D90
:101A3000231F849F600D211D822F762F6A2F112472
:101A40009F5750409AF0F1F088234AF0EE0FFF1FA5
:101A5000BB1F661F771F881F91505040A9F79E3FFC
:101A6000510580F00C94490D0C94940D5F3FE4F304
:101A7000983ED4F3869577956795B795F795E79552
:101A80009F5FC1F7FE2B880F911D9695879597F95B
:101A9000089597F99F6780E870E060E008959FEFF0
:101AA00080EC089500240A941616170618060906F5
:101AB000089500240A9412161306140605060895C4
:101AC000092E0394000C11F4882352F0BB0F40F44C
:101AD000BF2B11F460FF04C06F5F7F4F8F4F9F4F8C
:101AE000089557FD9058440F551F59F05F3F71F00E
:101AF0004795880F97FB991F61F09F3F79F0879575
:101B00000895121613061406551FF2CF4695F1DFFD
:101B100008C0161617061806991FF1CF869571058D
:101B2000610508940895E894BB2766277727CB01C1
:101B300097F90895052E97FB1EF400940E94B10DAD
:101B400057FD07D00E94F00D07FC03D04EF40C9413
:101B5000B10D50954095309521953F4F4F4F5F4FB8
:101B6000089590958095709561957F4F8F4F9F4F09
:101B700008952F923F924F925F926F927F928F9231
:101B80009F92AF92BF92CF92DF92EF92FF920F930C
:101B90001F93CF93DF93CDB7DEB7CA1BDB0B0FB616
:101BA000F894DEBF0FBECDBF09942A8839884888D3
:101BB0005F846E847D848C849B84AA84B984C88469
:101BC000DF80EE80FD800C811B81AA81B981CE0F60
:101BD000D11D0FB6F894DEBF0FBECDBFED01089545
:101BE000A1E21A2EAA1BBB1BFD010DC0AA1FBB1F21
:101BF000EE1FFF1FA217B307E407F50720F0A21B93
:101C0000B30BE40BF50B661F771F881F991F1A94FF
:101C100069F760957095809590959B01AC01BD0129
:101C2000CF010895A29FB001B39FC001A39F700D83
:101C3000811D1124911DB29F700D811D1124911DD4
:101C400008955058BB27AA270E94390E0C94600DA6
:101C50000E94520D38F00E94590D20F039F49F3F38
:101C600019F426F40C944F0D0EF4E095E7FB0C9458
:101C7000490DE92F0E94710D58F3BA1762077307D7
:101C80008407950720F079F4A6F50C94930D0EF4D3
:101C9000E0950B2EBA2FA02D0B01B90190010C017C
:101CA000CA01A0011124FF27591B99F0593F50F494
:101CB000503E68F11A16F040A22F232F342F4427EC
:101CC000585FF3CF469537952795A795F0405395E4
:101CD000C9F77EF41F16BA0B620B730B840BBAF0B4
:101CE0009150A1F0FF0FBB1F661F771F881FC2F71F
:101CF0000EC0BA0F621F731F841F48F48795779533
:101D00006795B795F7959E3F08F0B0CF9395880FEC
:101D100008F09927EE0F9795879508950E94A20ED7
:101D20000C94600D0E94590D58F00E94520D40F025
:101D300029F45F3F29F00C94490D51110C94940D36
:101D40000C944F0D0E94710D68F39923B1F3552344
:101D500091F3951B550BBB27AA27621773078407BE
:101D600038F09F5F5F4F220F331F441FAA1FA9F354
:101D700035D00E2E3AF0E0E832D091505040E69542
:101D8000001CCAF72BD0FE2F29D0660F771F881FA3
:101D9000BB1F261737074807AB07B0E809F0BB0B96
:101DA000802DBF01FF2793585F4F3AF09E3F5105AA
:101DB00078F00C94490D0C94940D5F3FE4F3983E39
:101DC000D4F3869577956795B795F7959F5FC9F793
:101DD000880F911D9695879597F90895E1E0660F14
:101DE000771F881FBB1F621773078407BA0720F08D
:101DF000621B730B840BBA0BEE1F88F7E0950895F6
:101E00000E94B80C08F48FEF08950E94120EB7FFDD
:101E10000895821B930B0895EE0FFF1F0590F49118
:101E2000E02D0994CF93DF938230910510F482E086
:101E300090E0E091E901F091EA0120E030E0C0E0BB
:101E4000D0E0309711F14081518148175907C0F017
:101E50004817590761F482819381209719F09B8379
:101E60008A832BC09093EA018093E90126C0211553
:101E7000310519F04217530718F49A01BE01DF012A
:101E8000EF010280F381E02DDCCF2115310509F14E
:101E9000281B390B2430310590F412968D919C91BA
:101EA00013976115710521F0FB019383828304C0B0
:101EB0009093EA018093E901FD01329644C0FD014F
:101EC000E20FF31F81939193225031092D933C939C
:101ED0003AC02091E7013091E801232B41F4209191
:101EE0000201309103013093E8012093E701209132
:101EF0000001309101012115310541F42DB73EB7A4
:101F00004091040150910501241B350BE091E7013C
:101F1000F091E801E217F307A0F42E1B3F0B2817FE
:101F2000390778F0AC014E5F5F4F2417350748F052
:101F30004E0F5F1F5093E8014093E7018193919307
:101F400002C0E0E0F0E0CF01DF91CF9108950F9360
:101F50001F93CF93DF93009709F48CC0FC01329755
:101F6000138212820091E9011091EA010115110515
:101F700081F420813181820F931F2091E7013091FC
:101F8000E8012817390779F5F093E801E093E701B4
:101F900071C0D80140E050E0AE17BF0750F4129670
:101FA0002D913C911397AD012115310509F1D9010E
:101FB000F3CF9D01DA013383228360817181860F23
:101FC000971F8217930769F4EC0128813981260F46
:101FD000371F2E5F3F4F318320838A819B819383FC
:101FE0008283452B29F4F093EA01E093E90142C092
:101FF0001396FC93EE931297ED01499159919E012E
:10200000240F351FE217F30771F480819181840F4B
:10201000951F029611969C938E93828193811396BD
:102020009C938E931297E0E0F0E0D80112968D9188
:102030009C911397009719F0F8018C01F6CF8D91C0
:102040009C9198012E5F3F4F820F931F2091E701D3
:102050003091E8012817390769F4309729F4109274
:10206000EA011092E90102C0138212821093E80182
:102070000093E701DF91CF911F910F910895A0E0A8
:10208000B0E0E5E4F0E10C94BD0DEC01009721F423
:10209000CB010E94120FB8C0FC01E60FF71F9C0194
:1020A00022503109E217F30708F4ACC0D9010D91B1
:1020B0001C91119706171707B0F00530110508F4A9
:1020C0009FC0C80104978617970708F499C002506B
:1020D0001109061B170B019311936D937C93CF018C
:1020E0000E94A70F8DC05B01A01AB10A4C01800E9F
:1020F000911EA091E901B091EA0140E050E0E12C8D
:10210000F12C109709F44AC0A815B905D1F56D90C6
:102110007C901197630182E0C80ED11CCA14DB04C5
:1021200080F1A3014A195B096A0182E0C80ED11C43
:102130001296BC9012971396AC91B5E0CB16D104D1
:1021400040F0B282A38351834083D9016D937C9385
:102150000AC00E5F1F4FC301800F911FF9019183C9
:102160008083EB2DFA2FE114F10431F0D70113969F
:10217000FC93EE93129744C0F093EA01E093E901D7
:102180003FC08D919C9111974817590708F4AC01F5
:102190007D0112960D90BC91A02DB3CF8091E701E7
:1021A0009091E80188159905E1F446175707C8F49E
:1021B0008091000190910101009741F48DB79EB785
:1021C0004091040150910501841B950BE817F90714
:1021D000C8F4F093E801E093E701F90171836083AB
:1021E0000FC0CB010E94120F7C01009759F0A8018B
:1021F000BE010E940911CE010E94A70FC70104C0B1
:10220000CE0102C080E090E0CDB7DEB7EEE00C94E6
:10221000D90DFB01DC0102C001900D9241505040EC
:10222000D8F70895FB01DC018D9101908019011010
:10223000D9F3990B0895FB01DC0101900D92002068
:10224000E1F7089510E0C2E6D0E004C0FE010E946C
:0E2250000C0F2196C336D107C9F7F894FFCFC3
:10225E000000EB0180000000000012018E00DB0088
:10226E00B900CD0059014944004645454445525FE9
:0C227E000030000D0A0066004F4B00000D
:107800000C94343C0C94513C0C94513C0C94513CE1
:107810000C94513C0C94513C0C94513C0C94513CB4
:107820000C94513C0C94513C0C94513C0C94513CA4
:107830000C94513C0C94513C0C94513C0C94513C94
:107840000C94513C0C94513C0C94513C0C94513C84
:107850000C94513C0C94513C0C94513C0C94513C74
:107860000C94513C0C94513C11241FBECFEFD8E036
:10787000DEBFCDBF11E0A0E0B1E0ECE9FFE702C060
:1078800005900D92A230B107D9F712E0A2E0B1E065
:1078900001C01D92AD30B107E1F70E942D3D0C945F
:1078A000CC3F0C94003C982F959595959595959582
:1078B000905D8F708A307CF0282F295A8091C0000B
:1078C00085FFFCCF9093C6008091C00085FFFCCF60
:1078D0002093C6000895282F205DF0CF982F809127
:1078E000C00085FFFCCF9093C6000895EF92FF92F1
:1078F0000F931F93EE24FF2487018091C00087FD22
:1079000017C00894E11CF11C011D111D81E4E8164B
:1079100082E4F8068FE0080780E0180770F3E09132
:107920000401F091050109958091C00087FFE9CF1E
:107930008091C6001F910F91FF90EF9008950E94D3
:10794000763C982F8091C00085FFFCCF9093C600B5
:1079500091362CF490330CF09053892F089597555D
:10796000892F08951F930E949F3C182F0E949F3CCF
:107970001295107F810F1F9108951F93182F882350
:1079800021F00E94763C1150E1F71F9108951F935A
:10799000182F0E94763C803249F0809103018F5F5E
:1079A000809303018530C1F01F9108958091C0003C
:1079B00085FFFCCF84E18093C6008091C00085FFE5
:1079C000FCCF1093C6008091C00085FFFCCF80E102
:1079D0008093C6001F910895E0910401F091050184
:1079E00009951F9108950E94763C803241F0809164
:1079F00003018F5F80930301853081F008958091AA
:107A0000C00085FFFCCF84E18093C6008091C00058
:107A100085FFFCCF80E18093C6000895E0910401CA
:107A2000F09105010995089540E951E08823A1F0FE
:107A30002D9A28EE33E0FA013197F1F721503040CA
:107A4000D1F72D9828EE33E0FA013197F1F7215064
:107A50003040D1F7815061F708953F924F925F9285
:107A60006F927F928F929F92AF92BF92CF92DF924E
:107A7000EF92FF920F931F93CF93DF93000080E16B
:107A80008093C4001092C50088E18093C10086E015
:107A90008093C2005098589A259A81E00E94143D24
:107AA00024E1F22E9EE1E92E85E9D82E0FE0C02ECA
:107AB00010E1B12EAA24A394B1E49B2EA6E58A2E50
:107AC000F2E57F2EE0E26E2E79E4572E63E5462E36
:107AD00050E5352E0E94763C8033B1F18133B9F107
:107AE000803409F46FC0813409F476C0823409F41B
:107AF00085C0853409F488C0803531F1823521F1A3
:107B0000813511F1853509F485C0863509F48DC0BC
:107B1000843609F496C0843709F403C1853709F423
:107B200072C1863709F466C0809103018F5F80932C
:107B30000301853079F6E0910401F0910501099582
:107B40000E94763C803351F60E94F33CC3CF0E94E2
:107B5000763C803249F78091C00085FFFCCFF092DF
:107B6000C6008091C00085FFFCCF9092C600809136
:107B7000C00085FFFCCF8092C6008091C00085FFC9
:107B8000FCCF7092C6008091C00085FFFCCF609250
:107B9000C6008091C00085FFFCCF5092C600809146
:107BA000C00085FFFCCF4092C6008091C00085FFD9
:107BB000FCCF3092C6008091C00085FFFCCFB09210
:107BC000C60088CF0E94763C863808F4BDCF0E945C
:107BD000763C0E94F33C7ECF0E94763C803809F4CC
:107BE0009CC0813809F40BC1823809F43CC1883942
:107BF00009F48FC080E00E94C73C6CCF84E10E94F2
:107C0000BD3C0E94F33C66CF85E00E94BD3C0E94D3
:107C1000F33C60CF0E94763C809306010E94763C44
:107C2000809307010E94F33C55CF0E94763C80333D
:107C300009F41DC183E00E94BD3C80E00E94C73C66
:107C400049CF0E94763C809309020E94763C809343
:107C5000080280910C028E7F80930C020E94763C79
:107C6000853409F415C18091080290910902892B8D
:107C700089F000E010E00E94763CF801E85FFE4FDA
:107C800080830F5F1F4F80910802909109020817AF
:107C9000190788F30E94763C803209F045CF809125
:107CA0000C0280FF01C16091060170910701660F0F
:107CB000771F7093070160930601A0910802B091AD
:107CC00009021097C9F0E8E0F1E09B01AD014E0F09
:107CD0005F1FF999FECF32BD21BD819180BDFA9A17
:107CE000F99A2F5F3F4FE417F50799F76A0F7B1F4B
:107CF00070930701609306018091C00085FFFCCF5F
:107D0000F092C6008091C00085FFFCCFB092C60003
:107D1000E1CE83E00E94C73CDDCE82E00E94C73CFA
:107D2000D9CE0E94763C809309020E94763C8093D3
:107D300008028091060190910701880F991F909386
:107D40000701809306010E94763C853409F4A6C0A1
:107D500080910C028E7F80930C020E94763C8032D0
:107D600009F0B8CE8091C00085FFFCCFF092C6002C
:107D7000609108027091090261157105B9F140E046
:107D800050E080910C02A82FA170B82FB27011C0E2
:107D9000BB2309F45CC0E0910601F0910701319624
:107DA000F0930701E09306014F5F5F4F46175707B7
:107DB000E8F4AA2369F3F999FECF209106013091E6
:107DC000070132BD21BDF89A90B58091C00085FFB2
:107DD000FCCF9093C6002F5F3F4F30930701209355
:107DE00006014F5F5F4F4617570718F38091C00099
:107DF00085FDE5CE8091C00085FFF8CFE0CE81E023
:107E00000E94C73C67CE0E94763C803209F08CCE3F
:107E10008091C00085FFFCCFF092C6008091C00029
:107E200085FFFCCFE092C6008091C00085FFFCCFAB
:107E3000D092C6008091C00085FFFCCFC092C600E2
:107E40008091C00085FFFCCFB092C60043CEE09188
:107E50000601F091070194918091C00085FFFCCF4D
:107E60009093C6009CCF80E10E94C73C33CE0E9415
:107E7000763C0E94763C182F0E94763C112309F430
:107E800083C0113009F484C08FE00E94C73C22CE29
:107E900080910C02816080930C02E5CE80910C02EF
:107EA000816080930C0259CF809107018823880F4D
:107EB000880B8A2180930B02809106019091070123
:107EC000880F991F90930701809306018091080203
:107ED00080FF09C080910802909109020196909359
:107EE000090280930802F894F999FECF1127E091D6
:107EF0000601F0910701C8E0D1E08091080290915D
:107F00000902103091F40091570001700130D9F34B
:107F100003E000935700E89500915700017001308D
:107F2000D9F301E100935700E89509901990009169
:107F3000570001700130D9F301E000935700E89534
:107F40001395103498F011270091570001700130FB
:107F5000D9F305E000935700E895009157000170B0
:107F60000130D9F301E100935700E895329602976A
:107F700009F0C7CF103011F00296E5CF112480919F
:107F8000C00085FFB9CEBCCE8EE10E94C73CA2CD19
:0C7F900085E90E94C73C9ECDF894FFCF0D
:027F9C00800063
:040000030000780081
:00000001FF
