:100000000C9463000C948B000C948B000C948B006C
:100010000C948B000C948B000C948B000C948B0034
:100020000C948B000C948B000C948B000C948B0024
:100030000C948B000C948B000C948B000C948B0014
:100040000C94C0060C948B000C948E060C946806DD
:100050000C948B000C948B000C948B000C948B00F4
:100060000C948B000C948B000000000024002700EF
:100070002A0000000000250028002B0000000000DE
:1000800023002600290004040404040404040202DA
:100090000202020203030303030301020408102007
:1000A0004080010204081020010204081020000012
:1000B0000008000201000003040700000000000027
:1000C00000000A07B50C11241FBECFEFD8E0DEBF39
:1000D000CDBF11E0A0E0B1E0E2E4F3E202C00590A0
:1000E0000D92A034B107D9F721E0A0E4B1E001C03E
:1000F0001D92AE3FB207E1F710E0C2E6D0E004C0C7
:100100002197FE010E94930FC136D107C9F70E94C3
:10011000D0070C9494110C94000080E480937C0030
:1001200080917A00806480937A0080917A0086FDC5
:10013000FCCF809178009091790008950895AF9256
:10014000BF92CF92DF92EF92FF920F931F93CF93C4
:10015000DF936C017B018B01040F151FEB015E0126
:10016000AE18BF08C017D10759F06991D601ED91BB
:10017000FC910190F081E02DC6010995892B79F75A
:10018000C501DF91CF911F910F91FF90EF90DF900C
:10019000CF90BF90AF900895FC01538D448D252FD3
:1001A00030E0842F90E0821B930B541710F0CF9611
:1001B000089501970895FC01918D828D981761F043
:1001C000A28DAE0FBF2FB11D5D968C91928D9F5F5A
:1001D0009F73928F90E008958FEF9FEF0895FC0139
:1001E000918D828D981731F0828DE80FF11D858DEC
:1001F00090E008958FEF9FEF0895FC01918D228D7F
:10020000892F90E0805C9F4F821B91098F73992703
:10021000089589E491E00E94FD0021E0892B09F412
:1002200020E0822F089580E090E0892B29F00E9441
:10023000090181110C9400000895FC01A48DA80F00
:10024000B92FB11DA35ABF4F2C91848D90E0019618
:100250008F739927848FA689B7892C93A089B18938
:100260008C91837080648C93938D848D981306C0D9
:100270000288F389E02D80818F7D80830895EF923D
:10028000FF920F931F93CF93DF93EC0181E0888F50
:100290009B8D8C8D98131AC0E889F989808185FF20
:1002A00015C09FB7F894EE89FF896083E889F989C2
:1002B00080818370806480839FBF81E090E0DF91C4
:1002C000CF911F910F91FF90EF900895F62E0B8D17
:1002D00010E00F5F1F4F0F731127E02E8C8D8E11D2
:1002E0000CC00FB607FCFACFE889F989808185FF39
:1002F000F5CFCE010E941D01F1CFEB8DEC0FFD2F4C
:10030000F11DE35AFF4FF0829FB7F8940B8FEA89F3
:10031000FB8980818062CFCFCF93DF93EC01888D02
:100320008823B9F0AA89BB89E889F9898C9185FD70
:1003300003C0808186FD0DC00FB607FCF7CF8C91FE
:1003400085FFF2CF808185FFEDCFCE010E941D0198
:10035000E9CFDF91CF910895833081F028F4813087
:1003600099F08230A9F008958730A9F08830C9F05B
:100370008430B1F4809180008F7D03C08091800033
:100380008F7780938000089584B58F7784BD08951A
:1003900084B58F7DFBCF8091B0008F778093B000C4
:1003A00008958091B0008F7DF9CFCF93DF93282FF0
:1003B00030E0F901E255FF4F8491F901E656FF4F15
:1003C000D491F901EA57FF4FC491CC23A1F08111D8
:1003D0000E94AC01EC2FF0E0EE0FFF1FE458FF4F3E
:1003E000A591B491EC91ED2381E090E009F480E0D7
:1003F000DF91CF91089580E090E0FACF1F93CF93E3
:10040000DF93282F30E0F901E255FF4F8491F90185
:10041000E656FF4FD491F901EA57FF4FC491CC2320
:10042000A9F0162F81110E94AC01EC2FF0E0EE0F25
:10043000FF1FEE58FF4FA591B4918FB7F894EC9140
:10044000111108C0D095DE23DC938FBFDF91CF91CF
:100450001F910895DE2BF8CFCF93DF9390E0FC013E
:10046000E656FF4F24918A579F4FFC0184918823C1
:10047000D1F090E0880F991FFC01E859FF4FA5913A
:10048000B491FC01EE58FF4FC591D49161110EC09B
:100490009FB7F8948C91E22FE0958E238C9328815E
:1004A000E223E8839FBFDF91CF9108958FB7F8943F
:1004B000EC91E22BEC938FBFF6CF1F93CF93DF939A
:1004C000182FEB0161E00E942C02209739F460E0C4
:1004D000812FDF91CF911F910C94FE01CF3FD10569
:1004E00011F461E0F5CFE12FF0E0E255FF4FE49128
:1004F000E33031F140F4E130B1F0E230E1F0C03806
:10050000D1057CF7E4CFE73029F1E83059F1E43048
:10051000B1F780918000806280938000D0938B003F
:10052000C0938A0004C084B5806884BDC7BDDF91D4
:10053000CF911F91089584B5806284BDC8BDF7CF67
:1005400080918000806880938000D0938900C09360
:100550008800EDCF8091B00080688093B000C09398
:10056000B300E5CF8091B00080628093B000C0936B
:10057000B400DDCF3FB7F8948091450190914601DA
:10058000A0914701B091480126B5A89B05C02F3F17
:1005900019F00196A11DB11D3FBFBA2FA92F982FA9
:1005A0008827BC01CD01620F711D811D911D42E0A4
:1005B000660F771F881F991F4A95D1F708958F926C
:1005C0009F92AF92BF92CF92DF92EF92FF926B0118
:1005D0007C010E94BA024B015C01C114D104E10408
:1005E000F104B9F00E94BA02681979098A099B09D5
:1005F000683E73408105910580F321E0C21AD1085D
:10060000E108F10888EE880E83E0981EA11CB11C59
:10061000E4CFFF90EF90DF90CF90BF90AF909F908E
:100620008F9008952FB7F894609141017091420125
:1006300080914301909144012FBF0895CF93DF93A0
:10064000EC0160E08AE00E94FE0160E08BE00E9425
:10065000FE0160E089E00E94FE0160E086E00E9409
:10066000FE0160E083E10E94FE01C251DF4F18826B
:1006700064E670E080E090E0DF91CF910C94DF02BF
:10068000EF92FF920F931F93CF93DF93EC017A01C8
:1006900089018AE00E945D02B7018BE00E945D0241
:1006A000B80189E00E945D0261E086E00E94FE01DF
:1006B00061E083E10E94FE01FE01E251FF4F81E013
:1006C000808364E670E080E090E00E94DF020E9498
:1006D0008D008C010E941203FE01E651FF4F6083E2
:1006E000718382839383DE01AE51BF4F11961C92BA
:1006F0001E92369711821082EE5DF109C253DF4FD0
:1007000001931193EC17FD07D9F701931193EA17A1
:10071000FB07D9F7DF91CF911F910F91FF90EF90D9
:100720000895FC0101900020E9F73197AF01481BC3
:10073000590BBC0189E491E00C949F00CF93DF93A7
:100740000E949103EC0188E191E00E9491038C0FDB
:100750009D1FDF91CF9108952F923F924F925F920C
:100760006F927F928F929F92AF92BF92CF92DF92C1
:10077000EF92FF920F931F93CF93DF93CDB7DEB726
:10078000A5970FB6F894DEBF0FBECDBF6C01FB017D
:100790009A018DB79EB79DA38CA388EE93E0BA0112
:1007A0000E945C0F1B012E9F70012F9FF00C3E9F3B
:1007B000F00C11240E9412034B015C010E941203F1
:1007C0002B013C01C701880F991FEDB7FEB7E81B4D
:1007D000F90B0FB6F894FEBF0FBEEDBF2DB73EB7B5
:1007E0002F5F3F4F3BA32AA330E020E04FEF50E0C4
:1007F00070E060E0C6010E94400310E000E0E016F7
:10080000F106FCF09101D8010E94700F640D751D76
:10081000861D971D86169706A806B90668F00E94E1
:100820008D00F801EE0FFF1F2AA13BA1E20FF31F7D
:10083000918380830F5F1F4F0E9412034B015C0165
:10084000DECF8BE191E00E949E032AA03BA01BA279
:100850001AA28AE0482E512C612C712C8AA19BA1EE
:100860008E159F050CF050C0F101819091901F01F1
:10087000092C000CAA08BB08B7FE30C06DE289E461
:1008800091E00E943F0122273327A9012819390945
:100890004A095B0919A28E010F5D1F4FCA01B901F8
:1008A000A30192010E94160E605DF80162938F0110
:1008B000211531054105510589F70115110519F07B
:1008C000C8010E94910388E191E00E9491032AA14E
:1008D0003BA12F5F3F4F3BA32AA3C0CFA5019401AB
:1008E00019A28E010F5D1F4FCA01B901A301920128
:1008F0000E94160E605DF80162938F01211531058B
:100900004105510589F7D9CFC6010E941E038CA16C
:100910009DA10FB6F8949EBF0FBE8DBFA5960FB6D2
:10092000F894DEBF0FBECDBFDF91CF911F910F9125
:10093000FF90EF90DF90CF90BF90AF909F908F90FF
:100940007F906F905F904F903F902F900895FC01A3
:1009500080819181009711F00C9435100895FC016D
:1009600080819181009711F00C94C10C60E070E0DF
:10097000CB010895FC0124813581232B39F421E03A
:10098000FB018081882349F020E007C080819181AC
:100990000E94841121E0892BB9F7822F08950F93CB
:1009A0001F93CF93DF938C01EB01FC018081918138
:1009B0000097E1F06881798161157105A9F04281A4
:1009C00053812C813D814217530770F00E948D1195
:1009D0008C819D81F801958384831D821C82DF9127
:1009E000CF911F910F9108950E94351088819981B0
:1009F000F801918380838A819B81938382838C8198
:100A00009D8195838483198218821B821A82E5CF87
:100A10000F931F93CF93DF93EC0188819981009707
:100A200059F02A813B812617370730F081E0DF91AA
:100A3000CF911F910F9108958B016F5F7F4F0E949F
:100A4000BE10009759F0998388831B830A832C81F9
:100A50003D81232B59F7FC011082E8CF80E0E7CFDE
:100A6000EF92FF920F931F93CF93DF9341155105A0
:100A7000B1F07B01EC010C811D81040F151FB80141
:100A80000E940805882361F0288139818C819D812D
:100A9000B701820F931F0E948D111D830C8381E08B
:100AA000DF91CF911F910F91FF90EF900895EF92FA
:100AB000FF920F931F93CF93DF93EC017B018A0189
:100AC000BA010E94080528813981811114C02115BD
:100AD000310519F0C9010E943510198218821D8252
:100AE0001C821B821A82CE01DF91CF911F910F9140
:100AF000FF90EF9008951D830C83B701C9010E94F8
:100B00008D11F1CFFC0111821082138212821582A5
:100B10001482F1E0883E9F0769F06091E8017091CE
:100B2000E9016115710531F04091EC015091ED0141
:100B30000C9457050895FC011182108213821282D1
:100B400015821482FB0101900020E9F73197AF0173
:100B5000461B570B0C945705AF92BF92CF92DF9272
:100B6000EF92FF920F931F93CF93DF93EC016B01F2
:100B70005A0179012417350720F48B2D5901E42EF1
:100B8000F82E6AE171E0CE010E949B05D601149611
:100B90000D911C91A016B10628F5E016F10608F497
:100BA0008701D601ED91FC911197E00FF11FF080C4
:100BB00010826D917C916A0D7B1D61157105F1F0BC
:100BC000FB0101900020E9F73197AF01461B570B5D
:100BD000CE010E945705F60180819181080F191FEF
:100BE000D801FC92CE01DF91CF911F910F91FF9020
:100BF000EF90DF90CF90BF90AF900895888199815A
:100C0000009711F00E943510198218821D821C82F3
:100C10001B821A82E0CF8F929F92AF92BF92CF92A7
:100C2000DF92EF92FF920F931F93CF93DF93EC012C
:100C30007A01DB011496CD90DC90860101501109F8
:100C40002FEF3FEF50E040E090E080E0F0E0E0E0A8
:100C5000081719071CF1EE16FF061CF1DC011196AE
:100C60005D018C159D0560F4DB018D909C908114D5
:100C7000910431F0D401A80FB91FAC91AC3219F036
:100C80000817190749F43196A9014F5F5F4F950185
:100C90000817190709F09C01C501DACFEE16FF0607
:100CA0008CF4CE010E94AC05CE01DF91CF911F9153
:100CB0000F91FF90EF90DF90CF90BF90AF909F90FB
:100CC0008F9008956AE171E0CE010E949B05ECCF00
:100CD0001F920F920FB60F9211242F933F934F93B1
:100CE0005F936F937F938F939F93AF93BF93EF9394
:100CF000FF9389E491E00E941D01FF91EF91BF9164
:100D0000AF919F918F917F916F915F914F913F91A3
:100D10002F910F900FBE0F901F9018951F920F925A
:100D20000FB60F9211242F938F939F93EF93FF93FE
:100D3000E0915901F0915A018081E0915F01F091B9
:100D4000600182FD1BC09081809162018F5F8F7373
:100D500020916301821741F0E0916201F0E0E75BCE
:100D6000FE4F958F80936201FF91EF919F918F913C
:100D70002F910F900FBE0F901F9018958081F4CF88
:100D80001F920F920FB60F9211242F933F938F93C0
:100D90009F93AF93BF938091410190914201A091A5
:100DA0004301B09144013091400123E0230F2D37DE
:100DB00058F50196A11DB11D20934001809341017A
:100DC00090934201A0934301B09344018091450167
:100DD00090914601A0914701B09148010196A11D53
:100DE000B11D8093450190934601A0934701B093B4
:100DF0004801BF91AF919F918F913F912F910F909B
:100E00000FBE0F901F90189526E8230F0296A11D84
:100E1000B11DD2CFCF93DF93E9E4F1E013821282C8
:100E200088EE93E0A0E0B0E084839583A683B78347
:100E30008AE091E09183808385EC90E095878487B8
:100E400084EC90E09787868780EC90E0918B808B94
:100E500081EC90E0938B828B82EC90E0958B848B7D
:100E600086EC90E0978B868B118E128E138E148EEB
:100E70006AE171E084EF91E00E949B056AE171E014
:100E80008EEE91E00E949B056AE171E088EE91E0B0
:100E90000E949B058FEE90E00E94990FEC018FE07D
:100EA00090E09983888381E090E0A0E0B0E08A83BD
:100EB0009B83AC83BD83FE01E251FF4F10823C97C0
:100EC0001182108232961182108261E08AE00E94C3
:100ED0002C0261E08BE00E942C0261E089E00E941C
:100EE0002C0261E086E00E942C0260E08AE00E9411
:100EF000FE0160E08BE00E94FE0160E089E00E945C
:100F0000FE0160E086E00E94FE0161E085E00E9453
:100F10002C0261E08FE00E942C0261E081E10E94DE
:100F20002C0261E083E10E942C0261E085E00E94D6
:100F3000FE0160E08FE00E94FE0160E081E10E941E
:100F4000FE0160E083E10E94FE0160E080E10E941A
:100F50002C0260E082E10E942C0260E08EE00E94A0
:100F60002C0260E08CE00E942C0260E088E00E948D
:100F70002C0260E087E00E942C0260E084E00E9486
:100F80002C0260E083E00E942C0260E082E00E947C
:100F90002C02D093E701C093E601DF91CF91089531
:100FA000CF93DF93CDB7DEB762970FB6F894DEBF6D
:100FB0000FBECDBF789484B5826084BD84B5816056
:100FC00084BD85B5826085BD85B5816085BD809114
:100FD0006E00816080936E0010928100809181008C
:100FE0008260809381008091810081608093810084
:100FF000809180008160809380008091B100846046
:101000008093B1008091B00081608093B0008091A6
:101010007A00846080937A0080917A008260809365
:101020007A0080917A00816080937A0080917A00C2
:10103000806880937A001092C100E0915901F0918C
:101040005A0182E08083E0915501F09156011082AF
:10105000E0915701F09158018FEC8083109261016B
:10106000E0915D01F0915E0186E08083E0915B019B
:10107000F0915C01808180618083E0915B01F0915F
:101080005C01808188608083E0915B01F0915C016C
:10109000808180688083E0915B01F0915C018081B8
:1010A0008F7D808361E08FE00E94FE0161E081E13D
:1010B0000E94FE0164E670E080E090E00E94DF02A2
:1010C00060E08FE00E94FE0160E081E10E94FE018D
:1010D00064E670E080E090E00E94DF0261E08FE073
:1010E0000E94FE0161E081E10E94FE0164E670E081
:1010F00080E090E00E94DF0260E08FE00E94FE014D
:1011000060E081E10E94FE018BE191E00E949E037C
:101110008E010F5F1F4F89E491E00E94FD00892B33
:10112000D9F06AE070E080E090E00E94DF0289E49C
:1011300091E00E94FD00181619066CF789E491E011
:101140000E94DB0089831A8241E050E0B80184EFFD
:1011500091E00E943005DFCF8091F8019091F90174
:10116000892B09F487C06EE171E084EF91E00E9461
:10117000BA04882309F4F9C18BE191E00E949E032F
:1011800061E271E0CE0109960E949B058CE00E940D
:10119000D5017C0188E00E94D501880F991FE80ED7
:1011A000F91E87E00E94D501880F991F880F991FAB
:1011B000E80EF91E84E00E94D50173E0880F991FA4
:1011C0007A95E1F7E80EF91E83E00E94D501E4E08C
:1011D000880F991FEA95E1F7E80EF91E82E00E9458
:1011E000D501F5E0880F991FFA95E1F7E80EF91E91
:1011F00084E6E816F104A4F441E050E069E271E00D
:10120000CE0109960E9430059AE0E916F10444F4F3
:1012100041E050E069E271E0CE0109960E9430059C
:101220004AE0B801C7010E94E80CF80101900020D3
:10123000E9F73197AF01401B510BB801CE01099678
:101240000E9430054D855E8569857A8589E491E047
:101250000E949F0088E191E00E949103CE010996CF
:101260000E94A70450E040E06AE171E084EF91E061
:101270000E945705E090E601F090E701F701E25186
:10128000FF4F8081882309F4E5C00E941203F70113
:10129000EA51FF4F60837183828393833496808009
:1012A0009180A280B3802B013C01481859086A083C
:1012B0007B08D70112968D909D90AD90BC901597AC
:1012C000481459046A047B0408F4C4C06083718321
:1012D000828393835701B2EEAB0EB11CF501C0803F
:1012E000D1800E948D00F6013396EE0FFF1FEE0DA8
:1012F000FF1D91838083D5012D913C914701B4EE70
:101300008B0E911CF40180819181FC01E959FF4F02
:10131000EE0FFF1FEE0DFF1DD9011396AA0FBB1F85
:10132000AE0DBF1D4D915C91518340832F5F3F4FA8
:10133000D50111963C932E930196F40191838083FD
:101340002436310514F01D921C920A971CF0D4012A
:101350001D921C92F501C080D18054E6A52EB12CBF
:10136000412C512C3201F4E6CF16D10414F0D12CCB
:10137000C12CF6013396EE0FFF1FEE0DFF1D6081AD
:101380007181072E000C880B990B0E94340D9B0174
:10139000AC01C301B2010E94480E2B013C018FEF4A
:1013A000C81AD80A91E0A91AB108E9F620E030E09D
:1013B00048EC52E4C301B2010E94B40E0E94260F11
:1013C0002B01D401CD90DC903AE0232E312C812CDE
:1013D000912C5401BAE0CB16D10414F0D12CC12CBD
:1013E000F601E959FF4FEE0FFF1FEE0DFF1D608163
:1013F0007181072E000C880B990B0E94340D9B0104
:10140000AC01C501B4010E94480E4B015C01EFEF35
:10141000CE1ADE0AF1E02F1A3108E1F620E030E0C2
:1014200040E251E40E94B40E0E94260F461A570A69
:1014300057FE03C0519441945108D7018D919C915E
:10144000841595053CF4C7010E941E0385E391E0D5
:101450000E949E038090E6019090E70180E10E9447
:10146000D501892B09F043C26AE070E080E090E08A
:101470000E94DF0280E10E94D501019709F437C282
:1014800061E08FE00E94FE0130E020E050E040E0AB
:1014900070E060E0C4010E944003F401EE51FF4F90
:1014A000E080F18094E6C92ED12C412C512C3201E0
:1014B000B4E6EB16F10414F0F12CE12CF7013396AD
:1014C000EE0FFF1FE80DF91D60817181072E000CE2
:1014D000880B990B0E94340D9B01AC01C301B20132
:1014E0000E94480E2B013C01EFEFEE1AFE0AF1E0DC
:1014F000CF1AD108E9F620E030E048EC52E40E942F
:10150000B40E0E94260F5B012B01770F6608770847
:1015100080E10E94D5017C01892B09F0E1C10E9484
:101520008D0097FD05C075018A159B050CF47C01A3
:101530009701A1E0BFEF0E94700FA30192010E94EA
:10154000C00D69017A018FEFC80ED11CE11CF11C9E
:10155000B6018AE00E945D02B6018BE00E945D0246
:10156000B60189E00E945D02D3CF21E030E050E077
:1015700040E064EF71E0C8010E94AC05B8018EEE56
:1015800091E00E94CF04C8010E94A7042FEF3FEF13
:1015900041E050E064EF71E0C8010E94AC05B80181
:1015A00088EE91E00E94CF04C8010E94A7046BE27C
:1015B00071E08EEE91E00E94BA04882309F465C0C0
:1015C000CE0109960E94820550E040E0BE01675FAF
:1015D0007F4FC8010E940B06C8010E94AF042B0177
:1015E000C8010E94A704CE0109960E94A704CE015B
:1015F00009960E94820541E050E0BE01675F7F4F7F
:10160000C8010E940B06C8010E94AF044B01C8012B
:101610000E94A704CE0109960E94A704CE01099654
:101620000E94820542E050E0BE01675F7F4FC80123
:101630000E940B06C8010E94AF046F87788B898BCC
:101640009A8BEF84F888C8010E94A704CE010996FE
:101650000E94A7048091E6019091E7014114510492
:1016600009F02FC18114910409F02BC1EF2809F072
:1016700028C130E020E04FEF50E070E060E00E94D1
:1016800040038BE191E00E949E036DE271E08EEEDB
:1016900091E00E94BA04882351F08091E601909174
:1016A000E7010E941E038BE191E00E949E036FE21E
:1016B00071E08EEE91E00E94BA04882309F1CE0118
:1016C00009960E94820550E040E0BE01675F7F4FAF
:1016D000C8010E940B06C8010E94AF046B01C8013B
:1016E0000E94A704CE0109960E94A704E091E6019A
:1016F000F091E701D182C0828BE191E00E949E03CC
:1017000061E371E08EEE91E00E94BA04882309F44F
:101710003FC0CE0109960E94820550E040E0BE0124
:10172000675F7F4FC8010E940B06C8010E94AF048B
:101730006B01C8010E94A704CE0109960E94A7046C
:10174000CE0109960E94820541E050E0BE01675F2C
:101750007F4FC8010E940B06C8010E94AF042B01F5
:10176000C8010E94A704CE0109960E94A704809197
:10177000E6019091E7014AE050E04114510409F07C
:10178000A201B6010E94AC038BE191E00E949E038E
:1017900063E371E08EEE91E00E94BA04882309F4BD
:1017A00061CDF12CE12C6701AFEFCA1ADA0ACE0144
:1017B00009960E948205A701BE01675F7F4FC8019D
:1017C0000E940B066AE171E0C8010E94BA04B82EBB
:1017D000C8010E94A704CE0109960E94A704B11077
:1017E0007AC0CE0109960E948205A701BE01675FFB
:1017F0007F4FC8010E940B06C8010E94AF044B0135
:10180000C8010E94A704CE0109960E94A704CE0138
:1018100009960E948205A601BE01675F7F4FC8013D
:101820000E940B066AE171E0C8010E94BA04782E9A
:10183000C8010E94A704CE0109960E94A704092CA2
:10184000000CAA08BB08711041C0CE0109960E9485
:101850008205A601BE01675F7F4FC8010E940B068B
:10186000C8010E94AF042B01C8010E94A704CE0149
:1018700009960E94A7049201A1E0BFEF0E94700F99
:1018800024E630E040E050E00E94C00DCA01B901FA
:1018900061507F4F8F4F9F4F85E00E945D02C501D1
:1018A000B4010E94DF0261E085E00E94FE016AE06F
:1018B00070E080E090E00E94DF02B2E0EB0EF11CED
:1018C00072CF2F853889A401B201D9CE60E085E0BE
:1018D0000E94FE01E4CF8BE191E00E949E03C2CC06
:1018E00060E08FE00E94FE01C4010E941E0382E1BD
:1018F0000E94D501892B61F56AE070E080E090E0FC
:101900000E94DF0282E10E94D501019709F161E0A6
:1019100081E10E94FE0164E670E080E090E00E94B8
:10192000DF0260E081E10E94FE0160E085E00E944C
:10193000FE0182E10E94D501892BD9F361E085E0A7
:101940000E94FE016AE070E080E090E00E94DF0209
:10195000A0E0B0E0AB2B09F4DECB0E9409018823A4
:1019600009F4D9CB0E940000D6CB88EE91E00E940A
:10197000A7048EEE91E00E94A70484EF91E00C94FE
:10198000A7041F93FC0199278827BC01E8941191B3
:101990001032E9F3193010F01E30C8F31B3251F049
:1019A0001D3249F4689406C00E94F30C610F711D4A
:1019B000811D911D119110531A30B0F33EF4909592
:1019C0008095709561957F4F8F4F9F4F1F91089520
:1019D000BB274A3031F4992322F4BDE290958195DA
:1019E0009F4F0C94090D592F482F372F262F660F24
:1019F000771F881F991F660F771F881F991F620F17
:101A0000731F841F951F660F771F881F991F0895E6
:101A1000BB27FB015527AA27880F991FAA1FA417C8
:101A200010F0A41B83955051B9F7A05DAA3308F0BC
:101A3000A95DA193009779F7B111B1931192CB01F0
:101A40000C94220DDC01FC01672F71917723E1F7E3
:101A5000329704C07C916D9370836291AE17BF077B
:101A6000C8F30895E89409C097FB3EF490958095DB
:101A7000709561957F4F8F4F9F4F9923A9F0F92F54
:101A800096E9BB279395F695879577956795B795D2
:101A9000F111F8CFFAF4BB0F11F460FF1BC06F5FB8
:101AA0007F4F8F4F9F4F16C0882311F096E911C0CA
:101AB000772321F09EE8872F762F05C0662371F0EB
:101AC00096E8862F70E060E02AF09A95660F771FFF
:101AD000881FDAF7880F9695879597F9089597F9F3
:101AE0009F6780E870E060E008959FEF80EC0895C4
:101AF00000240A94161617061806090608950024ED
:101B00000A9412161306140605060895092E039466
:101B1000000C11F4882352F0BB0F40F4BF2B11F4DA
:101B200060FF04C06F5F7F4F8F4F9F4F089557FD39
:101B30009058440F551F59F05F3F71F04795880F3B
:101B400097FB991F61F09F3F79F0879508951216D2
:101B500013061406551FF2CF4695F1DF08C016167E
:101B600017061806991FF1CF86957105610508942F
:101B70000895E894BB2766277727CB0197F9089546
:101B8000052E97FB1EF400940E94D70D57FD07D039
:101B90000E94160E07FC03D04EF40C94D70D5095FE
:101BA0004095309521953F4F4F4F5F4F0895909549
:101BB0008095709561957F4F8F4F9F4F08952F921D
:101BC0003F924F925F926F927F928F929F92AF92CD
:101BD000BF92CF92DF92EF92FF920F931F93CF931A
:101BE000DF93CDB7DEB7CA1BDB0B0FB6F894DEBFB1
:101BF0000FBECDBF09942A88398848885F846E84D7
:101C00007D848C849B84AA84B984C884DF80EE8020
:101C1000FD800C811B81AA81B981CE0FD11D0FB629
:101C2000F894DEBF0FBECDBFED010895A1E21A2EDC
:101C3000AA1BBB1BFD010DC0AA1FBB1FEE1FFF1F70
:101C4000A217B307E407F50720F0A21BB30BE40BC0
:101C5000F50B661F771F881F991F1A9469F7609507
:101C60007095809590959B01AC01BD01CF010895C1
:101C7000A29FB001B39FC001A39F700D811D1124CD
:101C8000911DB29F700D811D1124911D0895505812
:101C9000BB27AA270E945F0E0C94860D0E94780D28
:101CA00038F00E947F0D20F039F49F3F19F426F49C
:101CB0000C94750D0EF4E095E7FB0C946F0DE92F75
:101CC0000E94970D58F3BA176207730784079507A8
:101CD00020F079F4A6F50C94B90D0EF4E0950B2ED6
:101CE000BA2FA02D0B01B90190010C01CA01A0016E
:101CF0001124FF27591B99F0593F50F4503E68F1C9
:101D00001A16F040A22F232F342F4427585FF3CF09
:101D1000469537952795A795F0405395C9F77EF4DA
:101D20001F16BA0B620B730B840BBAF09150A1F023
:101D3000FF0FBB1F661F771F881FC2F70EC0BA0FA9
:101D4000621F731F841F48F4879577956795B79531
:101D5000F7959E3F08F0B0CF9395880F08F099272C
:101D6000EE0F9795879508950E94C80E0C94860DE6
:101D70000E947F0D58F00E94780D40F029F45F3FDB
:101D800029F00C946F0D51110C94BA0D0C94750D33
:101D90000E94970D68F39923B1F3552391F3951B96
:101DA000550BBB27AA2762177307840738F09F5F7C
:101DB0005F4F220F331F441FAA1FA9F335D00E2EE9
:101DC0003AF0E0E832D091505040E695001CCAF756
:101DD0002BD0FE2F29D0660F771F881FBB1F261719
:101DE00037074807AB07B0E809F0BB0B802DBF01F0
:101DF000FF2793585F4F3AF09E3F510578F00C94BF
:101E00006F0D0C94BA0D5F3FE4F3983ED4F38695C2
:101E100077956795B795F7959F5FC9F7880F911DDF
:101E20009695879597F90895E1E0660F771F881FCB
:101E3000BB1F621773078407BA0720F0621B730B7E
:101E4000840BBA0BEE1F88F7E09508950E942D0FC2
:101E50006894B1110C94BA0D08950E949F0D88F0FA
:101E60009F5798F0B92F9927B751B0F0E1F0660F5E
:101E7000771F881F991F1AF0BA95C9F714C0B1309F
:101E800091F00E94B90DB1E008950C94B90D672F3F
:101E9000782F8827B85F39F0B93FCCF386957795CE
:101EA0006795B395D9F73EF49095809570956195B7
:101EB0007F4F8F4F9F4F089597FB072E16F4009486
:101EC00007D077FD09D00E947F0F07FC05D03EF4B4
:101ED000909581959F4F0895709561957F4F0895D6
:101EE0000E94380E332312F48A1B9B0B0C947A0F3A
:101EF0000E94380EB7FF0895821B930B0895AA1B0A
:101F0000BB1B51E107C0AA1FBB1FA617B70710F0E4
:101F1000A61BB70B881F991F5A95A9F78095909516
:101F2000BC01CD010895EE0FFF1F0590F491E02D47
:101F300009940F931F93CF93DF938230910510F490
:101F400082E090E0E091FC01F091FD0130E020E0C2
:101F5000B0E0A0E0309799F42115310509F44AC0AA
:101F6000281B390B24303105D8F58A819B816115F6
:101F7000710589F1FB0193838283FE0111C04081C9
:101F800051810281138148175907E0F0481759071A
:101F900099F4109761F012960C93129713961C9374
:101FA0003296CF01DF91CF911F910F910895009349
:101FB000FC011093FD01F4CF2115310551F04217BA
:101FC000530738F0A901DB019A01BD01DF01F801D7
:101FD000C1CFEF01F9CF9093FD018093FC01CDCFEC
:101FE000FE01E20FF31F819391932250310939834F
:101FF0002883D7CF2091FA013091FB01232B41F4A4
:1020000020910201309103013093FB012093FA01EA
:1020100020910001309101012115310541F42DB7C6
:102020003EB74091040150910501241B350BE0910E
:10203000FA01F091FB01E217F307A0F42E1B3F0B0E
:102040002817390778F0AC014E5F5F4F241735072A
:1020500048F04E0F5F1F5093FB014093FA018193AC
:1020600091939FCFF0E0E0E09CCFCF93DF93009778
:10207000E9F0FC01329713821282A091FC01B09129
:10208000FD01ED0130E020E01097A1F420813181C5
:10209000820F931F2091FA013091FB012817390715
:1020A00009F061C0F093FB01E093FA01DF91CF9159
:1020B0000895EA01CE17DF07E8F54A815B819E01AA
:1020C00041155105B1F7E901FB83EA834991599123
:1020D000C40FD51FEC17FD0761F480819181029632
:1020E000840F951FE90199838883828193819B8363
:1020F0008A83F0E0E0E012968D919C91139700970F
:10210000B9F52D913C911197CD010296820F931F45
:102110002091FA013091FB012817390739F63097E1
:1021200051F51092FD011092FC01B093FB01A093B8
:10213000FA01BCCFD383C28340815181840F951FA4
:10214000C817D90761F44E5F5F4F88819981480FA6
:10215000591F518340838A819B81938382832115F8
:10216000310509F0B0CFF093FD01E093FC019ECF63
:10217000FD01DC01C0CF13821282D7CFB0E0A0E016
:10218000E4ECF0E10C94E10D8C01009751F4CB01EB
:102190000E94990F8C01C801CDB7DEB7E0E10C9425
:1021A000FD0DFC01E60FF71F9C0122503109E217DB
:1021B000F30708F49DC0D901CD91DC911197C617A2
:1021C000D70798F0C530D10530F3CE0104978617B4
:1021D000970708F3C61BD70B2297C193D1936D9332
:1021E0007C93CF010E943510D6CF5B01AC1ABD0A9B
:1021F0004C018C0E9D1EA091FC01B091FD01512C53
:10220000412CF12CE12C109731F58091FA0190913D
:10221000FB018815990509F05CC04616570608F0C1
:1022200058C08091000190910101009741F48DB751
:102230009EB74091040150910501841B950BE8174E
:10224000F90708F055C0F093FB01E093FA01F9019A
:1022500071836083A0CF8D919C91119712966C90A1
:10226000129713967C901397A815B90559F56C0130
:1022700042E0C40ED11CCA14DB0420F1AC014A199F
:102280005B09DA011296159780F06282738251839E
:102290004083D9016D937C93E114F10471F0D7016F
:1022A0001396FC93EE93129776CF22968C0F9D1F78
:1022B000F90191838083F301EFCFF093FD01E09367
:1022C000FC0169CF4816590608F42C017D01D301A1
:1022D0009ACFCB010E94990F7C01009749F0AE0183
:1022E000B8010E947B11C8010E943510870153CFAD
:1022F00010E000E050CFFB01DC0102C001900D9224
:1023000041505040D8F70895FB01DC018D910190B8
:1023100080190110D9F3990B0895FB01DC0101909C
:102320000D920020E1F7089510E0C2E6D0E004C06D
:10233000FE010E94930F2196C336D107C9F7F89486
:02234000FFCFCD
:102342000000FE018000000000003F019F00CC0061
:102352008C01FD00DB00EF000D0A004F4B004944E9
:1023620000425554544F4E5F0030006100640074C7
:102372000072006B005452494747455245440000E1
:107800000C94343C0C94513C0C94513C0C94513CE1
:107810000C94513C0C94513C0C94513C0C94513CB4
:107820000C94513C0C94513C0C94513C0C94513CA4
:107830000C94513C0C94513C0C94513C0C94513C94
:107840000C94513C0C94513C0C94513C0C94513C84
:107850000C94513C0C94513C0C94513C0C94513C74
:107860000C94513C0C94513C11241FBECFEFD8E036
:10787000DEBFCDBF11E0A0E0B1E0ECE9FFE702C060
:1078800005900D92A230B107D9F712E0A2E0B1E065
:1078900001C01D92AD30B107E1F70E942D3D0C945F
:1078A000CC3F0C94003C982F959595959595959582
:1078B000905D8F708A307CF0282F295A8091C0000B
:1078C00085FFFCCF9093C6008091C00085FFFCCF60
:1078D0002093C6000895282F205DF0CF982F809127
:1078E000C00085FFFCCF9093C6000895EF92FF92F1
:1078F0000F931F93EE24FF2487018091C00087FD22
:1079000017C00894E11CF11C011D111D81E4E8164B
:1079100082E4F8068FE0080780E0180770F3E09132
:107920000401F091050109958091C00087FFE9CF1E
:107930008091C6001F910F91FF90EF9008950E94D3
:10794000763C982F8091C00085FFFCCF9093C600B5
:1079500091362CF490330CF09053892F089597555D
:10796000892F08951F930E949F3C182F0E949F3CCF
:107970001295107F810F1F9108951F93182F882350
:1079800021F00E94763C1150E1F71F9108951F935A
:10799000182F0E94763C803249F0809103018F5F5E
:1079A000809303018530C1F01F9108958091C0003C
:1079B00085FFFCCF84E18093C6008091C00085FFE5
:1079C000FCCF1093C6008091C00085FFFCCF80E102
:1079D0008093C6001F910895E0910401F091050184
:1079E00009951F9108950E94763C803241F0809164
:1079F00003018F5F80930301853081F008958091AA
:107A0000C00085FFFCCF84E18093C6008091C00058
:107A100085FFFCCF80E18093C6000895E0910401CA
:107A2000F09105010995089540E951E08823A1F0FE
:107A30002D9A28EE33E0FA013197F1F721503040CA
:107A4000D1F72D9828EE33E0FA013197F1F7215064
:107A50003040D1F7815061F708953F924F925F9285
:107A60006F927F928F929F92AF92BF92CF92DF924E
:107A7000EF92FF920F931F93CF93DF93000080E16B
:107A80008093C4001092C50088E18093C10086E015
:107A90008093C2005098589A259A81E00E94143D24
:107AA00024E1F22E9EE1E92E85E9D82E0FE0C02ECA
:107AB00010E1B12EAA24A394B1E49B2EA6E58A2E50
:107AC000F2E57F2EE0E26E2E79E4572E63E5462E36
:107AD00050E5352E0E94763C8033B1F18133B9F107
:107AE000803409F46FC0813409F476C0823409F41B
:107AF00085C0853409F488C0803531F1823521F1A3
:107B0000813511F1853509F485C0863509F48DC0BC
:107B1000843609F496C0843709F403C1853709F423
:107B200072C1863709F466C0809103018F5F80932C
:107B30000301853079F6E0910401F0910501099582
:107B40000E94763C803351F60E94F33CC3CF0E94E2
:107B5000763C803249F78091C00085FFFCCFF092DF
:107B6000C6008091C00085FFFCCF9092C600809136
:107B7000C00085FFFCCF8092C6008091C00085FFC9
:107B8000FCCF7092C6008091C00085FFFCCF609250
:107B9000C6008091C00085FFFCCF5092C600809146
:107BA000C00085FFFCCF4092C6008091C00085FFD9
:107BB000FCCF3092C6008091C00085FFFCCFB09210
:107BC000C60088CF0E94763C863808F4BDCF0E945C
:107BD000763C0E94F33C7ECF0E94763C803809F4CC
:107BE0009CC0813809F40BC1823809F43CC1883942
:107BF00009F48FC080E00E94C73C6CCF84E10E94F2
:107C0000BD3C0E94F33C66CF85E00E94BD3C0E94D3
:107C1000F33C60CF0E94763C809306010E94763C44
:107C2000809307010E94F33C55CF0E94763C80333D
:107C300009F41DC183E00E94BD3C80E00E94C73C66
:107C400049CF0E94763C809309020E94763C809343
:107C5000080280910C028E7F80930C020E94763C79
:107C6000853409F415C18091080290910902892B8D
:107C700089F000E010E00E94763CF801E85FFE4FDA
:107C800080830F5F1F4F80910802909109020817AF
:107C9000190788F30E94763C803209F045CF809125
:107CA0000C0280FF01C16091060170910701660F0F
:107CB000771F7093070160930601A0910802B091AD
:107CC00009021097C9F0E8E0F1E09B01AD014E0F09
:107CD0005F1FF999FECF32BD21BD819180BDFA9A17
:107CE000F99A2F5F3F4FE417F50799F76A0F7B1F4B
:107CF00070930701609306018091C00085FFFCCF5F
:107D0000F092C6008091C00085FFFCCFB092C60003
:107D1000E1CE83E00E94C73CDDCE82E00E94C73CFA
:107D2000D9CE0E94763C809309020E94763C8093D3
:107D300008028091060190910701880F991F909386
:107D40000701809306010E94763C853409F4A6C0A1
:107D500080910C028E7F80930C020E94763C8032D0
:107D600009F0B8CE8091C00085FFFCCFF092C6002C
:107D7000609108027091090261157105B9F140E046
:107D800050E080910C02A82FA170B82FB27011C0E2
:107D9000BB2309F45CC0E0910601F0910701319624
:107DA000F0930701E09306014F5F5F4F46175707B7
:107DB000E8F4AA2369F3F999FECF209106013091E6
:107DC000070132BD21BDF89A90B58091C00085FFB2
:107DD000FCCF9093C6002F5F3F4F30930701209355
:107DE00006014F5F5F4F4617570718F38091C00099
:107DF00085FDE5CE8091C00085FFF8CFE0CE81E023
:107E00000E94C73C67CE0E94763C803209F08CCE3F
:107E10008091C00085FFFCCFF092C6008091C00029
:107E200085FFFCCFE092C6008091C00085FFFCCFAB
:107E3000D092C6008091C00085FFFCCFC092C600E2
:107E40008091C00085FFFCCFB092C60043CEE09188
:107E50000601F091070194918091C00085FFFCCF4D
:107E60009093C6009CCF80E10E94C73C33CE0E9415
:107E7000763C0E94763C182F0E94763C112309F430
:107E800083C0113009F484C08FE00E94C73C22CE29
:107E900080910C02816080930C02E5CE80910C02EF
:107EA000816080930C0259CF809107018823880F4D
:107EB000880B8A2180930B02809106019091070123
:107EC000880F991F90930701809306018091080203
:107ED00080FF09C080910802909109020196909359
:107EE000090280930802F894F999FECF1127E091D6
:107EF0000601F0910701C8E0D1E08091080290915D
:107F00000902103091F40091570001700130D9F34B
:107F100003E000935700E89500915700017001308D
:107F2000D9F301E100935700E89509901990009169
:107F3000570001700130D9F301E000935700E89534
:107F40001395103498F011270091570001700130FB
:107F5000D9F305E000935700E895009157000170B0
:107F60000130D9F301E100935700E895329602976A
:107F700009F0C7CF103011F00296E5CF112480919F
:107F8000C00085FFB9CEBCCE8EE10E94C73CA2CD19
:0C7F900085E90E94C73C9ECDF894FFCF0D
:027F9C00800063
:040000030000780081
:00000001FF
